{
  "_format": "hh-sol-artifact-1",
  "contractName": "CleverLaunch",
  "sourceName": "contracts/CleverLaunch.sol",
  "abi": [
    {
      "inputs": [
        {
          "internalType": "address",
          "name": "_tokenAddress",
          "type": "address"
        }
      ],
      "stateMutability": "nonpayable",
      "type": "constructor"
    },
    {
      "anonymous": false,
      "inputs": [
        {
          "indexed": true,
          "internalType": "uint128",
          "name": "projectId",
          "type": "uint128"
        },
        {
          "indexed": true,
          "internalType": "address",
          "name": "walletAddress",
          "type": "address"
        },
        {
          "indexed": false,
          "internalType": "uint256",
          "name": "amount",
          "type": "uint256"
        }
      ],
      "name": "BackerClaimFund",
      "type": "event"
    },
    {
      "anonymous": false,
      "inputs": [
        {
          "indexed": true,
          "internalType": "uint128",
          "name": "projectId",
          "type": "uint128"
        },
        {
          "indexed": true,
          "internalType": "address",
          "name": "walletAddress",
          "type": "address"
        },
        {
          "indexed": false,
          "internalType": "uint256",
          "name": "amount",
          "type": "uint256"
        }
      ],
      "name": "CreatorClaimFund",
      "type": "event"
    },
    {
      "anonymous": false,
      "inputs": [
        {
          "indexed": true,
          "internalType": "address",
          "name": "previousOwner",
          "type": "address"
        },
        {
          "indexed": true,
          "internalType": "address",
          "name": "newOwner",
          "type": "address"
        }
      ],
      "name": "OwnershipTransferred",
      "type": "event"
    },
    {
      "anonymous": false,
      "inputs": [
        {
          "indexed": true,
          "internalType": "uint128",
          "name": "projectId",
          "type": "uint128"
        }
      ],
      "name": "ProjectApproved",
      "type": "event"
    },
    {
      "anonymous": false,
      "inputs": [
        {
          "indexed": true,
          "internalType": "uint128",
          "name": "projectId",
          "type": "uint128"
        },
        {
          "indexed": false,
          "internalType": "address",
          "name": "from",
          "type": "address"
        },
        {
          "indexed": false,
          "internalType": "uint256",
          "name": "amount",
          "type": "uint256"
        }
      ],
      "name": "ProjectDeposit",
      "type": "event"
    },
    {
      "anonymous": false,
      "inputs": [
        {
          "indexed": true,
          "internalType": "address",
          "name": "previousTokenAddress",
          "type": "address"
        },
        {
          "indexed": true,
          "internalType": "address",
          "name": "newTokenAddress",
          "type": "address"
        }
      ],
      "name": "TokenAddressChanged",
      "type": "event"
    },
    {
      "inputs": [
        {
          "internalType": "uint128",
          "name": "_projectId",
          "type": "uint128"
        }
      ],
      "name": "claimFundBacker",
      "outputs": [],
      "stateMutability": "nonpayable",
      "type": "function"
    },
    {
      "inputs": [
        {
          "internalType": "uint128",
          "name": "_projectId",
          "type": "uint128"
        }
      ],
      "name": "claimFundCreator",
      "outputs": [],
      "stateMutability": "nonpayable",
      "type": "function"
    },
    {
      "inputs": [
        {
          "internalType": "uint128",
          "name": "_projectId",
          "type": "uint128"
        },
        {
          "internalType": "uint48",
          "name": "_approvedAt",
          "type": "uint48"
        },
        {
          "internalType": "uint48",
          "name": "_endAt",
          "type": "uint48"
        },
        {
          "internalType": "address",
          "name": "_walletAddress",
          "type": "address"
        },
        {
          "internalType": "uint256",
          "name": "_targetAmount",
          "type": "uint256"
        }
      ],
      "name": "createProject",
      "outputs": [],
      "stateMutability": "nonpayable",
      "type": "function"
    },
    {
      "inputs": [
        {
          "internalType": "uint128",
          "name": "_projectId",
          "type": "uint128"
        },
        {
          "internalType": "uint256",
          "name": "_amount",
          "type": "uint256"
        }
      ],
      "name": "deposit",
      "outputs": [],
      "stateMutability": "nonpayable",
      "type": "function"
    },
    {
      "inputs": [
        {
          "internalType": "uint128",
          "name": "_projectId",
          "type": "uint128"
        },
        {
          "internalType": "address",
          "name": "_backerAddress",
          "type": "address"
        }
      ],
      "name": "getBackerAmount",
      "outputs": [
        {
          "internalType": "uint256",
          "name": "",
          "type": "uint256"
        }
      ],
      "stateMutability": "view",
      "type": "function"
    },
    {
      "inputs": [
        {
          "internalType": "uint128",
          "name": "_projectId",
          "type": "uint128"
        }
      ],
      "name": "getProjectBackedAmount",
      "outputs": [
        {
          "internalType": "uint256",
          "name": "backedAmount",
          "type": "uint256"
        }
      ],
      "stateMutability": "view",
      "type": "function"
    },
    {
      "inputs": [
        {
          "internalType": "uint128",
          "name": "_projectId",
          "type": "uint128"
        }
      ],
      "name": "getProjectEndTime",
      "outputs": [
        {
          "internalType": "uint48",
          "name": "",
          "type": "uint48"
        }
      ],
      "stateMutability": "view",
      "type": "function"
    },
    {
      "inputs": [
        {
          "internalType": "uint128",
          "name": "_projectId",
          "type": "uint128"
        }
      ],
      "name": "getProjectWalletAddress",
      "outputs": [
        {
          "internalType": "address",
          "name": "",
          "type": "address"
        }
      ],
      "stateMutability": "view",
      "type": "function"
    },
    {
      "inputs": [],
      "name": "getTokenAddress",
      "outputs": [
        {
          "internalType": "address",
          "name": "",
          "type": "address"
        }
      ],
      "stateMutability": "view",
      "type": "function"
    },
    {
      "inputs": [],
      "name": "owner",
      "outputs": [
        {
          "internalType": "address",
          "name": "",
          "type": "address"
        }
      ],
      "stateMutability": "view",
      "type": "function"
    },
    {
      "inputs": [],
      "name": "renounceOwnership",
      "outputs": [],
      "stateMutability": "nonpayable",
      "type": "function"
    },
    {
      "inputs": [
        {
          "internalType": "address",
          "name": "_tokenAddress",
          "type": "address"
        }
      ],
      "name": "setTokenAddress",
      "outputs": [],
      "stateMutability": "nonpayable",
      "type": "function"
    },
    {
      "inputs": [
        {
          "internalType": "address",
          "name": "newOwner",
          "type": "address"
        }
      ],
      "name": "transferOwnership",
      "outputs": [],
      "stateMutability": "nonpayable",
      "type": "function"
    }
  ],
  "bytecode": "0x60806040523480156200001157600080fd5b5060405162002584380380620025848339818101604052810190620000379190620001d5565b620000576200004b6200009f60201b60201c565b620000a760201b60201c565b80600360006101000a81548173ffffffffffffffffffffffffffffffffffffffff021916908373ffffffffffffffffffffffffffffffffffffffff1602179055505062000207565b600033905090565b60008060009054906101000a900473ffffffffffffffffffffffffffffffffffffffff169050816000806101000a81548173ffffffffffffffffffffffffffffffffffffffff021916908373ffffffffffffffffffffffffffffffffffffffff1602179055508173ffffffffffffffffffffffffffffffffffffffff168173ffffffffffffffffffffffffffffffffffffffff167f8be0079c531659141344cd1fd0a4f28419497f9722a3daafe3b4186f6b6457e060405160405180910390a35050565b600080fd5b600073ffffffffffffffffffffffffffffffffffffffff82169050919050565b60006200019d8262000170565b9050919050565b620001af8162000190565b8114620001bb57600080fd5b50565b600081519050620001cf81620001a4565b92915050565b600060208284031215620001ee57620001ed6200016b565b5b6000620001fe84828501620001be565b91505092915050565b61236d80620002176000396000f3fe608060405234801561001057600080fd5b50600436106100cf5760003560e01c8063715018a61161008c578063aec16d1811610066578063aec16d1814610212578063cacd2d671461022e578063cc8cd1bf1461024a578063f2fde38b14610266576100cf565b8063715018a6146101ce5780638d5060b7146101d85780638da5cb5b146101f4576100cf565b8063014ed131146100d457806310fe9ae81461010457806326a4e8d214610122578063317276cc1461013e57806359edffe41461016e5780636db572431461019e575b600080fd5b6100ee60048036038101906100e991906117dd565b610282565b6040516100fb919061184b565b60405180910390f35b61010c6102e6565b604051610119919061184b565b60405180910390f35b61013c60048036038101906101379190611892565b610310565b005b610158600480360381019061015391906117dd565b610452565b60405161016591906118d8565b60405180910390f35b610188600480360381019061018391906118f3565b610496565b60405161019591906118d8565b60405180910390f35b6101b860048036038101906101b391906117dd565b610515565b6040516101c59190611954565b60405180910390f35b6101d661056b565b005b6101f260048036038101906101ed91906117dd565b61057f565b005b6101fc6109f3565b604051610209919061184b565b60405180910390f35b61022c600480360381019061022791906117dd565b610a1c565b005b610248600480360381019061024391906119c7565b610ef4565b005b610264600480360381019061025f9190611a42565b61127a565b005b610280600480360381019061027b9190611892565b6115c3565b005b600060016000836fffffffffffffffffffffffffffffffff166fffffffffffffffffffffffffffffffff16815260200190815260200160002060010160009054906101000a900473ffffffffffffffffffffffffffffffffffffffff169050919050565b6000600360009054906101000a900473ffffffffffffffffffffffffffffffffffffffff16905090565b8073ffffffffffffffffffffffffffffffffffffffff16600360009054906101000a900473ffffffffffffffffffffffffffffffffffffffff1673ffffffffffffffffffffffffffffffffffffffff160361036a57600080fd5b6000600360009054906101000a900473ffffffffffffffffffffffffffffffffffffffff16905081600360006101000a81548173ffffffffffffffffffffffffffffffffffffffff021916908373ffffffffffffffffffffffffffffffffffffffff160217905550600360009054906101000a900473ffffffffffffffffffffffffffffffffffffffff1673ffffffffffffffffffffffffffffffffffffffff168173ffffffffffffffffffffffffffffffffffffffff167f5527f14e7199c63a0d6caffa1fd8eab9a6e595207bc2b23ae26a028acde7eefa60405160405180910390a35050565b600060016000836fffffffffffffffffffffffffffffffff166fffffffffffffffffffffffffffffffff168152602001908152602001600020600201549050919050565b600060026000846fffffffffffffffffffffffffffffffff166fffffffffffffffffffffffffffffffff16815260200190815260200160002060008373ffffffffffffffffffffffffffffffffffffffff1673ffffffffffffffffffffffffffffffffffffffff16815260200190815260200160002054905092915050565b600060016000836fffffffffffffffffffffffffffffffff166fffffffffffffffffffffffffffffffff16815260200190815260200160002060000160169054906101000a900465ffffffffffff169050919050565b610573611646565b61057d60006116c4565b565b80600060016000836fffffffffffffffffffffffffffffffff166fffffffffffffffffffffffffffffffff16815260200190815260200160002060000160109054906101000a900465ffffffffffff1665ffffffffffff1603610617576040517f08c379a000000000000000000000000000000000000000000000000000000000815260040161060e90611adf565b60405180910390fd5b816103e8426106269190611b2e565b60016000836fffffffffffffffffffffffffffffffff166fffffffffffffffffffffffffffffffff16815260200190815260200160002060000160169054906101000a900465ffffffffffff1665ffffffffffff161180156106fb575060016000826fffffffffffffffffffffffffffffffff166fffffffffffffffffffffffffffffffff1681526020019081526020016000206002015460016000836fffffffffffffffffffffffffffffffff166fffffffffffffffffffffffffffffffff16815260200190815260200160002060030154115b1561073b576040517f08c379a000000000000000000000000000000000000000000000000000000000815260040161073290611be2565b60405180910390fd5b600060026000856fffffffffffffffffffffffffffffffff166fffffffffffffffffffffffffffffffff16815260200190815260200160002060003373ffffffffffffffffffffffffffffffffffffffff1673ffffffffffffffffffffffffffffffffffffffff16815260200190815260200160002054116107f2576040517f08c379a00000000000000000000000000000000000000000000000000000000081526004016107e990611c4e565b60405180910390fd5b6000600360009054906101000a900473ffffffffffffffffffffffffffffffffffffffff169050600060026000866fffffffffffffffffffffffffffffffff166fffffffffffffffffffffffffffffffff16815260200190815260200160002060003373ffffffffffffffffffffffffffffffffffffffff1673ffffffffffffffffffffffffffffffffffffffff168152602001908152602001600020549050600060026000876fffffffffffffffffffffffffffffffff166fffffffffffffffffffffffffffffffff16815260200190815260200160002060003373ffffffffffffffffffffffffffffffffffffffff1673ffffffffffffffffffffffffffffffffffffffff168152602001908152602001600020819055508173ffffffffffffffffffffffffffffffffffffffff1663a9059cbb33836040518363ffffffff1660e01b8152600401610947929190611c6e565b6020604051808303816000875af1158015610966573d6000803e3d6000fd5b505050506040513d601f19601f8201168201806040525081019061098a9190611ccf565b503373ffffffffffffffffffffffffffffffffffffffff16856fffffffffffffffffffffffffffffffff167f9d0c626bd521dc6863be203700eaae04fcfc482e7cf3111be902b13746a34c53836040516109e491906118d8565b60405180910390a35050505050565b60008060009054906101000a900473ffffffffffffffffffffffffffffffffffffffff16905090565b80600060016000836fffffffffffffffffffffffffffffffff166fffffffffffffffffffffffffffffffff16815260200190815260200160002060000160109054906101000a900465ffffffffffff1665ffffffffffff1603610ab4576040517f08c379a0000000000000000000000000000000000000000000000000000000008152600401610aab90611adf565b60405180910390fd5b816103e842610ac39190611b2e565b60016000836fffffffffffffffffffffffffffffffff166fffffffffffffffffffffffffffffffff16815260200190815260200160002060000160169054906101000a900465ffffffffffff1665ffffffffffff16118015610b99575060016000826fffffffffffffffffffffffffffffffff166fffffffffffffffffffffffffffffffff1681526020019081526020016000206002015460016000836fffffffffffffffffffffffffffffffff166fffffffffffffffffffffffffffffffff1681526020019081526020016000206003015411155b15610bd9576040517f08c379a0000000000000000000000000000000000000000000000000000000008152600401610bd090611d6e565b60405180910390fd5b600060016000856fffffffffffffffffffffffffffffffff166fffffffffffffffffffffffffffffffff1681526020019081526020016000206002015411610c56576040517f08c379a0000000000000000000000000000000000000000000000000000000008152600401610c4d90611dda565b60405180910390fd5b6000600360009054906101000a900473ffffffffffffffffffffffffffffffffffffffff16905060006064600560016000886fffffffffffffffffffffffffffffffff166fffffffffffffffffffffffffffffffff16815260200190815260200160002060020154610cc89190611b2e565b610cd29190611e29565b60016000876fffffffffffffffffffffffffffffffff166fffffffffffffffffffffffffffffffff16815260200190815260200160002060020154610d179190611e5a565b9050600060016000876fffffffffffffffffffffffffffffffff166fffffffffffffffffffffffffffffffff168152602001908152602001600020600201819055508173ffffffffffffffffffffffffffffffffffffffff1663a9059cbb60016000886fffffffffffffffffffffffffffffffff166fffffffffffffffffffffffffffffffff16815260200190815260200160002060010160009054906101000a900473ffffffffffffffffffffffffffffffffffffffff16836040518363ffffffff1660e01b8152600401610dee929190611c6e565b6020604051808303816000875af1158015610e0d573d6000803e3d6000fd5b505050506040513d601f19601f82011682018060405250810190610e319190611ccf565b5060016000866fffffffffffffffffffffffffffffffff166fffffffffffffffffffffffffffffffff16815260200190815260200160002060010160009054906101000a900473ffffffffffffffffffffffffffffffffffffffff1673ffffffffffffffffffffffffffffffffffffffff16856fffffffffffffffffffffffffffffffff167f85c25298688faa3d23658349a528fbace4a50f2debf409e1896184b741ac1f4183604051610ee591906118d8565b60405180910390a35050505050565b610efc611646565b84600060016000836fffffffffffffffffffffffffffffffff166fffffffffffffffffffffffffffffffff16815260200190815260200160002060000160109054906101000a900465ffffffffffff1665ffffffffffff1614610f94576040517f08c379a0000000000000000000000000000000000000000000000000000000008152600401610f8b90611eda565b60405180910390fd5b8365ffffffffffff168565ffffffffffff1610610fe6576040517f08c379a0000000000000000000000000000000000000000000000000000000008152600401610fdd90611f6c565b60405180910390fd5b428465ffffffffffff1611611030576040517f08c379a000000000000000000000000000000000000000000000000000000000815260040161102790611fd8565b60405180910390fd5b60008211611073576040517f08c379a000000000000000000000000000000000000000000000000000000000815260040161106a9061206a565b60405180910390fd5b600073ffffffffffffffffffffffffffffffffffffffff168373ffffffffffffffffffffffffffffffffffffffff16036110e2576040517f08c379a00000000000000000000000000000000000000000000000000000000081526004016110d9906120d6565b60405180910390fd5b6040518060c00160405280876fffffffffffffffffffffffffffffffff1681526020018665ffffffffffff1681526020018565ffffffffffff1681526020018473ffffffffffffffffffffffffffffffffffffffff168152602001600081526020018381525060016000886fffffffffffffffffffffffffffffffff166fffffffffffffffffffffffffffffffff16815260200190815260200160002060008201518160000160006101000a8154816fffffffffffffffffffffffffffffffff02191690836fffffffffffffffffffffffffffffffff16021790555060208201518160000160106101000a81548165ffffffffffff021916908365ffffffffffff16021790555060408201518160000160166101000a81548165ffffffffffff021916908365ffffffffffff16021790555060608201518160010160006101000a81548173ffffffffffffffffffffffffffffffffffffffff021916908373ffffffffffffffffffffffffffffffffffffffff1602179055506080820151816002015560a08201518160030155905050505050505050565b81600060016000836fffffffffffffffffffffffffffffffff166fffffffffffffffffffffffffffffffff16815260200190815260200160002060000160109054906101000a900465ffffffffffff1665ffffffffffff1603611312576040517f08c379a000000000000000000000000000000000000000000000000000000000815260040161130990611adf565b60405180910390fd5b824260016000836fffffffffffffffffffffffffffffffff166fffffffffffffffffffffffffffffffff16815260200190815260200160002060000160169054906101000a900465ffffffffffff1665ffffffffffff16116113a9576040517f08c379a00000000000000000000000000000000000000000000000000000000081526004016113a090612142565b60405180910390fd5b600083116113ec576040517f08c379a00000000000000000000000000000000000000000000000000000000081526004016113e3906121ae565b60405180910390fd5b6000600360009054906101000a900473ffffffffffffffffffffffffffffffffffffffff1690508073ffffffffffffffffffffffffffffffffffffffff166323b872dd3330876040518463ffffffff1660e01b8152600401611450939291906121ce565b6020604051808303816000875af115801561146f573d6000803e3d6000fd5b505050506040513d601f19601f820116820180604052508101906114939190611ccf565b508360026000876fffffffffffffffffffffffffffffffff166fffffffffffffffffffffffffffffffff16815260200190815260200160002060003373ffffffffffffffffffffffffffffffffffffffff1673ffffffffffffffffffffffffffffffffffffffff16815260200190815260200160002060008282546115189190612205565b925050819055508360016000876fffffffffffffffffffffffffffffffff166fffffffffffffffffffffffffffffffff16815260200190815260200160002060020160008282546115699190612205565b92505081905550846fffffffffffffffffffffffffffffffff167f9cf2cc2cffea2247d9052e6e65854c5f0a5b11f4744fa7fd02e0539d1b5c534933866040516115b4929190611c6e565b60405180910390a25050505050565b6115cb611646565b600073ffffffffffffffffffffffffffffffffffffffff168173ffffffffffffffffffffffffffffffffffffffff160361163a576040517f08c379a0000000000000000000000000000000000000000000000000000000008152600401611631906122ab565b60405180910390fd5b611643816116c4565b50565b61164e611788565b73ffffffffffffffffffffffffffffffffffffffff1661166c6109f3565b73ffffffffffffffffffffffffffffffffffffffff16146116c2576040517f08c379a00000000000000000000000000000000000000000000000000000000081526004016116b990612317565b60405180910390fd5b565b60008060009054906101000a900473ffffffffffffffffffffffffffffffffffffffff169050816000806101000a81548173ffffffffffffffffffffffffffffffffffffffff021916908373ffffffffffffffffffffffffffffffffffffffff1602179055508173ffffffffffffffffffffffffffffffffffffffff168173ffffffffffffffffffffffffffffffffffffffff167f8be0079c531659141344cd1fd0a4f28419497f9722a3daafe3b4186f6b6457e060405160405180910390a35050565b600033905090565b600080fd5b60006fffffffffffffffffffffffffffffffff82169050919050565b6117ba81611795565b81146117c557600080fd5b50565b6000813590506117d7816117b1565b92915050565b6000602082840312156117f3576117f2611790565b5b6000611801848285016117c8565b91505092915050565b600073ffffffffffffffffffffffffffffffffffffffff82169050919050565b60006118358261180a565b9050919050565b6118458161182a565b82525050565b6000602082019050611860600083018461183c565b92915050565b61186f8161182a565b811461187a57600080fd5b50565b60008135905061188c81611866565b92915050565b6000602082840312156118a8576118a7611790565b5b60006118b68482850161187d565b91505092915050565b6000819050919050565b6118d2816118bf565b82525050565b60006020820190506118ed60008301846118c9565b92915050565b6000806040838503121561190a57611909611790565b5b6000611918858286016117c8565b92505060206119298582860161187d565b9150509250929050565b600065ffffffffffff82169050919050565b61194e81611933565b82525050565b60006020820190506119696000830184611945565b92915050565b61197881611933565b811461198357600080fd5b50565b6000813590506119958161196f565b92915050565b6119a4816118bf565b81146119af57600080fd5b50565b6000813590506119c18161199b565b92915050565b600080600080600060a086880312156119e3576119e2611790565b5b60006119f1888289016117c8565b9550506020611a0288828901611986565b9450506040611a1388828901611986565b9350506060611a248882890161187d565b9250506080611a35888289016119b2565b9150509295509295909350565b60008060408385031215611a5957611a58611790565b5b6000611a67858286016117c8565b9250506020611a78858286016119b2565b9150509250929050565b600082825260208201905092915050565b7f50726f6a65637420646f6573206e6f7420657869737400000000000000000000600082015250565b6000611ac9601683611a82565b9150611ad482611a93565b602082019050919050565b60006020820190508181036000830152611af881611abc565b9050919050565b7f4e487b7100000000000000000000000000000000000000000000000000000000600052601160045260246000fd5b6000611b39826118bf565b9150611b44836118bf565b9250828202611b52816118bf565b91508282048414831517611b6957611b68611aff565b5b5092915050565b7f50726f6a656374206973206e6f74206661696c65642066756e64696e6720796560008201527f7400000000000000000000000000000000000000000000000000000000000000602082015250565b6000611bcc602183611a82565b9150611bd782611b70565b604082019050919050565b60006020820190508181036000830152611bfb81611bbf565b9050919050565b7f55736572206261636b656420616d6f756e7420697320656d7074790000000000600082015250565b6000611c38601b83611a82565b9150611c4382611c02565b602082019050919050565b60006020820190508181036000830152611c6781611c2b565b9050919050565b6000604082019050611c83600083018561183c565b611c9060208301846118c9565b9392505050565b60008115159050919050565b611cac81611c97565b8114611cb757600080fd5b50565b600081519050611cc981611ca3565b92915050565b600060208284031215611ce557611ce4611790565b5b6000611cf384828501611cba565b91505092915050565b7f50726f6a656374206973206e6f7420737563636573732066756e64696e67207960008201527f6574000000000000000000000000000000000000000000000000000000000000602082015250565b6000611d58602283611a82565b9150611d6382611cfc565b604082019050919050565b60006020820190508181036000830152611d8781611d4b565b9050919050565b7f50726f6a6563742066756e6420697320656d7074790000000000000000000000600082015250565b6000611dc4601583611a82565b9150611dcf82611d8e565b602082019050919050565b60006020820190508181036000830152611df381611db7565b9050919050565b7f4e487b7100000000000000000000000000000000000000000000000000000000600052601260045260246000fd5b6000611e34826118bf565b9150611e3f836118bf565b925082611e4f57611e4e611dfa565b5b828204905092915050565b6000611e65826118bf565b9150611e70836118bf565b9250828203905081811115611e8857611e87611aff565b5b92915050565b7f50726f6a65637420616c72656164792065786973740000000000000000000000600082015250565b6000611ec4601583611a82565b9150611ecf82611e8e565b602082019050919050565b60006020820190508181036000830152611ef381611eb7565b9050919050565b7f417070726f7665642074696d65206d757374206265206869676865722074686160008201527f6e20656e642074696d6500000000000000000000000000000000000000000000602082015250565b6000611f56602a83611a82565b9150611f6182611efa565b604082019050919050565b60006020820190508181036000830152611f8581611f49565b9050919050565b7f496e76616c696420656e642074696d6500000000000000000000000000000000600082015250565b6000611fc2601083611a82565b9150611fcd82611f8c565b602082019050919050565b60006020820190508181036000830152611ff181611fb5565b9050919050565b7f54617267657420616d6f756e742063616e6e6f7420626520657175616c206f7260008201527f206c657373207468616e20300000000000000000000000000000000000000000602082015250565b6000612054602c83611a82565b915061205f82611ff8565b604082019050919050565b6000602082019050818103600083015261208381612047565b9050919050565b7f496e76616c69642077616c6c6574206164647265737300000000000000000000600082015250565b60006120c0601683611a82565b91506120cb8261208a565b602082019050919050565b600060208201905081810360008301526120ef816120b3565b9050919050565b7f50726f6a65637420656e64656400000000000000000000000000000000000000600082015250565b600061212c600d83611a82565b9150612137826120f6565b602082019050919050565b6000602082019050818103600083015261215b8161211f565b9050919050565b7f416d6f756e742063616e27742062652030000000000000000000000000000000600082015250565b6000612198601183611a82565b91506121a382612162565b602082019050919050565b600060208201905081810360008301526121c78161218b565b9050919050565b60006060820190506121e3600083018661183c565b6121f0602083018561183c565b6121fd60408301846118c9565b949350505050565b6000612210826118bf565b915061221b836118bf565b925082820190508082111561223357612232611aff565b5b92915050565b7f4f776e61626c653a206e6577206f776e657220697320746865207a65726f206160008201527f6464726573730000000000000000000000000000000000000000000000000000602082015250565b6000612295602683611a82565b91506122a082612239565b604082019050919050565b600060208201905081810360008301526122c481612288565b9050919050565b7f4f776e61626c653a2063616c6c6572206973206e6f7420746865206f776e6572600082015250565b6000612301602083611a82565b915061230c826122cb565b602082019050919050565b60006020820190508181036000830152612330816122f4565b905091905056fea2646970667358221220c39a2ac4bf6fa2b019e06c75b2310f6396ba4f92f8f421731ad711840f67c03164736f6c63430008110033",
  "linkReferences": {},
  "deployedLinkReferences": {}
}